{
  "contractName": "ColorToken",
  "abi": [
    {
      "inputs": [],
      "stateMutability": "nonpayable",
      "type": "constructor"
    },
    {
      "anonymous": false,
      "inputs": [
        {
          "indexed": true,
          "internalType": "address",
          "name": "owner",
          "type": "address"
        },
        {
          "indexed": true,
          "internalType": "address",
          "name": "approved",
          "type": "address"
        },
        {
          "indexed": true,
          "internalType": "uint256",
          "name": "tokenId",
          "type": "uint256"
        }
      ],
      "name": "Approval",
      "type": "event"
    },
    {
      "anonymous": false,
      "inputs": [
        {
          "indexed": true,
          "internalType": "address",
          "name": "owner",
          "type": "address"
        },
        {
          "indexed": true,
          "internalType": "address",
          "name": "operator",
          "type": "address"
        },
        {
          "indexed": false,
          "internalType": "bool",
          "name": "approved",
          "type": "bool"
        }
      ],
      "name": "ApprovalForAll",
      "type": "event"
    },
    {
      "anonymous": false,
      "inputs": [
        {
          "indexed": true,
          "internalType": "address",
          "name": "from",
          "type": "address"
        },
        {
          "indexed": true,
          "internalType": "address",
          "name": "to",
          "type": "address"
        },
        {
          "indexed": true,
          "internalType": "uint256",
          "name": "tokenId",
          "type": "uint256"
        }
      ],
      "name": "Transfer",
      "type": "event"
    },
    {
      "inputs": [
        {
          "internalType": "uint256",
          "name": "",
          "type": "uint256"
        }
      ],
      "name": "allTokens",
      "outputs": [
        {
          "internalType": "uint256",
          "name": "tokenId",
          "type": "uint256"
        },
        {
          "internalType": "string",
          "name": "tokenName",
          "type": "string"
        },
        {
          "internalType": "address",
          "name": "owner",
          "type": "address"
        }
      ],
      "stateMutability": "view",
      "type": "function",
      "constant": true
    },
    {
      "inputs": [
        {
          "internalType": "address",
          "name": "to",
          "type": "address"
        },
        {
          "internalType": "uint256",
          "name": "tokenId",
          "type": "uint256"
        }
      ],
      "name": "approve",
      "outputs": [],
      "stateMutability": "nonpayable",
      "type": "function"
    },
    {
      "inputs": [
        {
          "internalType": "address",
          "name": "owner",
          "type": "address"
        }
      ],
      "name": "balanceOf",
      "outputs": [
        {
          "internalType": "uint256",
          "name": "",
          "type": "uint256"
        }
      ],
      "stateMutability": "view",
      "type": "function",
      "constant": true
    },
    {
      "inputs": [
        {
          "internalType": "uint256",
          "name": "tokenId",
          "type": "uint256"
        }
      ],
      "name": "getApproved",
      "outputs": [
        {
          "internalType": "address",
          "name": "",
          "type": "address"
        }
      ],
      "stateMutability": "view",
      "type": "function",
      "constant": true
    },
    {
      "inputs": [
        {
          "internalType": "address",
          "name": "owner",
          "type": "address"
        },
        {
          "internalType": "address",
          "name": "operator",
          "type": "address"
        }
      ],
      "name": "isApprovedForAll",
      "outputs": [
        {
          "internalType": "bool",
          "name": "",
          "type": "bool"
        }
      ],
      "stateMutability": "view",
      "type": "function",
      "constant": true
    },
    {
      "inputs": [],
      "name": "name",
      "outputs": [
        {
          "internalType": "string",
          "name": "",
          "type": "string"
        }
      ],
      "stateMutability": "view",
      "type": "function",
      "constant": true
    },
    {
      "inputs": [],
      "name": "owner",
      "outputs": [
        {
          "internalType": "address",
          "name": "",
          "type": "address"
        }
      ],
      "stateMutability": "view",
      "type": "function",
      "constant": true
    },
    {
      "inputs": [
        {
          "internalType": "uint256",
          "name": "tokenId",
          "type": "uint256"
        }
      ],
      "name": "ownerOf",
      "outputs": [
        {
          "internalType": "address",
          "name": "",
          "type": "address"
        }
      ],
      "stateMutability": "view",
      "type": "function",
      "constant": true
    },
    {
      "inputs": [
        {
          "internalType": "address",
          "name": "from",
          "type": "address"
        },
        {
          "internalType": "address",
          "name": "to",
          "type": "address"
        },
        {
          "internalType": "uint256",
          "name": "tokenId",
          "type": "uint256"
        }
      ],
      "name": "safeTransferFrom",
      "outputs": [],
      "stateMutability": "nonpayable",
      "type": "function"
    },
    {
      "inputs": [
        {
          "internalType": "address",
          "name": "from",
          "type": "address"
        },
        {
          "internalType": "address",
          "name": "to",
          "type": "address"
        },
        {
          "internalType": "uint256",
          "name": "tokenId",
          "type": "uint256"
        },
        {
          "internalType": "bytes",
          "name": "data",
          "type": "bytes"
        }
      ],
      "name": "safeTransferFrom",
      "outputs": [],
      "stateMutability": "nonpayable",
      "type": "function"
    },
    {
      "inputs": [
        {
          "internalType": "address",
          "name": "operator",
          "type": "address"
        },
        {
          "internalType": "bool",
          "name": "approved",
          "type": "bool"
        }
      ],
      "name": "setApprovalForAll",
      "outputs": [],
      "stateMutability": "nonpayable",
      "type": "function"
    },
    {
      "inputs": [
        {
          "internalType": "bytes4",
          "name": "interfaceId",
          "type": "bytes4"
        }
      ],
      "name": "supportsInterface",
      "outputs": [
        {
          "internalType": "bool",
          "name": "",
          "type": "bool"
        }
      ],
      "stateMutability": "view",
      "type": "function",
      "constant": true
    },
    {
      "inputs": [],
      "name": "symbol",
      "outputs": [
        {
          "internalType": "string",
          "name": "",
          "type": "string"
        }
      ],
      "stateMutability": "view",
      "type": "function",
      "constant": true
    },
    {
      "inputs": [
        {
          "internalType": "address",
          "name": "",
          "type": "address"
        },
        {
          "internalType": "uint256",
          "name": "",
          "type": "uint256"
        }
      ],
      "name": "tokenAdress",
      "outputs": [
        {
          "internalType": "uint256",
          "name": "tokenId",
          "type": "uint256"
        },
        {
          "internalType": "string",
          "name": "tokenName",
          "type": "string"
        },
        {
          "internalType": "address",
          "name": "owner",
          "type": "address"
        }
      ],
      "stateMutability": "view",
      "type": "function",
      "constant": true
    },
    {
      "inputs": [
        {
          "internalType": "string",
          "name": "",
          "type": "string"
        }
      ],
      "name": "tokenExists",
      "outputs": [
        {
          "internalType": "bool",
          "name": "",
          "type": "bool"
        }
      ],
      "stateMutability": "view",
      "type": "function",
      "constant": true
    },
    {
      "inputs": [
        {
          "internalType": "uint256",
          "name": "tokenId",
          "type": "uint256"
        }
      ],
      "name": "tokenURI",
      "outputs": [
        {
          "internalType": "string",
          "name": "",
          "type": "string"
        }
      ],
      "stateMutability": "view",
      "type": "function",
      "constant": true
    },
    {
      "inputs": [
        {
          "internalType": "address",
          "name": "from",
          "type": "address"
        },
        {
          "internalType": "address",
          "name": "to",
          "type": "address"
        },
        {
          "internalType": "uint256",
          "name": "tokenId",
          "type": "uint256"
        }
      ],
      "name": "transferFrom",
      "outputs": [],
      "stateMutability": "nonpayable",
      "type": "function"
    },
    {
      "inputs": [],
      "name": "getAllTokens",
      "outputs": [
        {
          "components": [
            {
              "internalType": "uint256",
              "name": "tokenId",
              "type": "uint256"
            },
            {
              "internalType": "string",
              "name": "tokenName",
              "type": "string"
            },
            {
              "internalType": "address",
              "name": "owner",
              "type": "address"
            }
          ],
          "internalType": "struct ColorToken.Color[]",
          "name": "",
          "type": "tuple[]"
        }
      ],
      "stateMutability": "view",
      "type": "function",
      "constant": true
    },
    {
      "inputs": [
        {
          "internalType": "string",
          "name": "_tokenName",
          "type": "string"
        }
      ],
      "name": "mintToken",
      "outputs": [],
      "stateMutability": "payable",
      "type": "function",
      "payable": true
    }
  ],
  "bytecode": "0x608060405260016007553480156200001657600080fd5b506040518060400160405280600a81526020017f436f6c6f72546f6b656e000000000000000000000000000000000000000000008152506040518060400160405280600381526020017f434c52000000000000000000000000000000000000000000000000000000000081525081600090816200009491906200036a565b508060019081620000a691906200036a565b50505033600660006101000a81548173ffffffffffffffffffffffffffffffffffffffff021916908373ffffffffffffffffffffffffffffffffffffffff16021790555062000451565b600081519050919050565b7f4e487b7100000000000000000000000000000000000000000000000000000000600052604160045260246000fd5b7f4e487b7100000000000000000000000000000000000000000000000000000000600052602260045260246000fd5b600060028204905060018216806200017257607f821691505b6020821081036200018857620001876200012a565b5b50919050565b60008190508160005260206000209050919050565b60006020601f8301049050919050565b600082821b905092915050565b600060088302620001f27fffffffffffffffffffffffffffffffffffffffffffffffffffffffffffffffff82620001b3565b620001fe8683620001b3565b95508019841693508086168417925050509392505050565b6000819050919050565b6000819050919050565b60006200024b620002456200023f8462000216565b62000220565b62000216565b9050919050565b6000819050919050565b62000267836200022a565b6200027f620002768262000252565b848454620001c0565b825550505050565b600090565b6200029662000287565b620002a38184846200025c565b505050565b5b81811015620002cb57620002bf6000826200028c565b600181019050620002a9565b5050565b601f8211156200031a57620002e4816200018e565b620002ef84620001a3565b81016020851015620002ff578190505b620003176200030e85620001a3565b830182620002a8565b50505b505050565b600082821c905092915050565b60006200033f600019846008026200031f565b1980831691505092915050565b60006200035a83836200032c565b9150826002028217905092915050565b6200037582620000f0565b67ffffffffffffffff811115620003915762000390620000fb565b5b6200039d825462000159565b620003aa828285620002cf565b600060209050601f831160018114620003e25760008415620003cd578287015190505b620003d985826200034c565b86555062000449565b601f198416620003f2866200018e565b60005b828110156200041c57848901518255600182019150602085019450602081019050620003f5565b868310156200043c578489015162000438601f8916826200032c565b8355505b6001600288020188555050505b505050505050565b61345980620004616000396000f3fe6080604052600436106101145760003560e01c8063634282af116100a0578063a22cb46511610064578063a22cb465146103cc578063b88d4fde146103f5578063c87b56dd1461041e578063e985e9c51461045b578063fc5468841461049857610114565b8063634282af146102bd5780636352211e146102fc57806370a08231146103395780638da5cb5b1461037657806395d89b41146103a157610114565b806323b872dd116100e757806323b872dd146101e75780632a5c792a1461021057806333eba49a1461023b57806342842e0e146102575780636059eae11461028057610114565b806301ffc9a71461011957806306fdde0314610156578063081812fc14610181578063095ea7b3146101be575b600080fd5b34801561012557600080fd5b50610140600480360381019061013b9190612045565b6104d7565b60405161014d919061208d565b60405180910390f35b34801561016257600080fd5b5061016b6105b9565b6040516101789190612138565b60405180910390f35b34801561018d57600080fd5b506101a860048036038101906101a39190612190565b61064b565b6040516101b591906121fe565b60405180910390f35b3480156101ca57600080fd5b506101e560048036038101906101e09190612245565b610691565b005b3480156101f357600080fd5b5061020e60048036038101906102099190612285565b6107a8565b005b34801561021c57600080fd5b50610225610808565b6040516102329190612452565b60405180910390f35b610255600480360381019061025091906124d9565b610959565b005b34801561026357600080fd5b5061027e60048036038101906102799190612285565b610c7b565b005b34801561028c57600080fd5b506102a760048036038101906102a29190612656565b610c9b565b6040516102b4919061208d565b60405180910390f35b3480156102c957600080fd5b506102e460048036038101906102df9190612190565b610cd1565b6040516102f3939291906126ae565b60405180910390f35b34801561030857600080fd5b50610323600480360381019061031e9190612190565b610db3565b60405161033091906121fe565b60405180910390f35b34801561034557600080fd5b50610360600480360381019061035b91906126ec565b610e39565b60405161036d9190612719565b60405180910390f35b34801561038257600080fd5b5061038b610ef0565b60405161039891906121fe565b60405180910390f35b3480156103ad57600080fd5b506103b6610f16565b6040516103c39190612138565b60405180910390f35b3480156103d857600080fd5b506103f360048036038101906103ee9190612760565b610fa8565b005b34801561040157600080fd5b5061041c60048036038101906104179190612841565b610fbe565b005b34801561042a57600080fd5b5061044560048036038101906104409190612190565b611020565b6040516104529190612138565b60405180910390f35b34801561046757600080fd5b50610482600480360381019061047d91906128c4565b611088565b60405161048f919061208d565b60405180910390f35b3480156104a457600080fd5b506104bf60048036038101906104ba9190612245565b61111c565b6040516104ce939291906126ae565b60405180910390f35b60007f80ac58cd000000000000000000000000000000000000000000000000000000007bffffffffffffffffffffffffffffffffffffffffffffffffffffffff1916827bffffffffffffffffffffffffffffffffffffffffffffffffffffffff191614806105a257507f5b5e139f000000000000000000000000000000000000000000000000000000007bffffffffffffffffffffffffffffffffffffffffffffffffffffffff1916827bffffffffffffffffffffffffffffffffffffffffffffffffffffffff1916145b806105b257506105b18261120b565b5b9050919050565b6060600080546105c890612933565b80601f01602080910402602001604051908101604052809291908181526020018280546105f490612933565b80156106415780601f1061061657610100808354040283529160200191610641565b820191906000526020600020905b81548152906001019060200180831161062457829003601f168201915b5050505050905090565b600061065682611275565b6004600083815260200190815260200160002060009054906101000a900473ffffffffffffffffffffffffffffffffffffffff169050919050565b600061069c82610db3565b90508073ffffffffffffffffffffffffffffffffffffffff168373ffffffffffffffffffffffffffffffffffffffff160361070c576040517f08c379a0000000000000000000000000000000000000000000000000000000008152600401610703906129d6565b60405180910390fd5b8073ffffffffffffffffffffffffffffffffffffffff1661072b6112c0565b73ffffffffffffffffffffffffffffffffffffffff16148061075a5750610759816107546112c0565b611088565b5b610799576040517f08c379a000000000000000000000000000000000000000000000000000000000815260040161079090612a68565b60405180910390fd5b6107a383836112c8565b505050565b6107b96107b36112c0565b82611381565b6107f8576040517f08c379a00000000000000000000000000000000000000000000000000000000081526004016107ef90612afa565b60405180910390fd5b610803838383611416565b505050565b60606008805480602002602001604051908101604052809291908181526020016000905b8282101561095057838290600052602060002090600302016040518060600160405290816000820154815260200160018201805461086990612933565b80601f016020809104026020016040519081016040528092919081815260200182805461089590612933565b80156108e25780601f106108b7576101008083540402835291602001916108e2565b820191906000526020600020905b8154815290600101906020018083116108c557829003601f168201915b505050505081526020016002820160009054906101000a900473ffffffffffffffffffffffffffffffffffffffff1673ffffffffffffffffffffffffffffffffffffffff1673ffffffffffffffffffffffffffffffffffffffff16815250508152602001906001019061082c565b50505050905090565b600a828260405161096b929190612b4a565b908152602001604051809103902060009054906101000a900460ff16156109c7576040517f08c379a00000000000000000000000000000000000000000000000000000000081526004016109be90612baf565b60405180910390fd5b6109d33360075461170f565b60086040518060600160405280600754815260200184848080601f016020809104026020016040519081016040528093929190818152602001838380828437600081840152601f19601f8201169050808301925050505050505081526020013373ffffffffffffffffffffffffffffffffffffffff168152509080600181540180825580915050600190039060005260206000209060030201600090919091909150600082015181600001556020820151816001019081610a949190612d7b565b5060408201518160020160006101000a81548173ffffffffffffffffffffffffffffffffffffffff021916908373ffffffffffffffffffffffffffffffffffffffff1602179055505050600960003373ffffffffffffffffffffffffffffffffffffffff1673ffffffffffffffffffffffffffffffffffffffff1681526020019081526020016000206040518060600160405280600754815260200184848080601f016020809104026020016040519081016040528093929190818152602001838380828437600081840152601f19601f8201169050808301925050505050505081526020013373ffffffffffffffffffffffffffffffffffffffff168152509080600181540180825580915050600190039060005260206000209060030201600090919091909150600082015181600001556020820151816001019081610bdc9190612d7b565b5060408201518160020160006101000a81548173ffffffffffffffffffffffffffffffffffffffff021916908373ffffffffffffffffffffffffffffffffffffffff16021790555050506001600a8383604051610c3a929190612b4a565b908152602001604051809103902060006101000a81548160ff02191690831515021790555060076000815480929190610c7290612e7c565b91905055505050565b610c9683838360405180602001604052806000815250610fbe565b505050565b600a818051602081018201805184825260208301602085012081835280955050505050506000915054906101000a900460ff1681565b60088181548110610ce157600080fd5b9060005260206000209060030201600091509050806000015490806001018054610d0a90612933565b80601f0160208091040260200160405190810160405280929190818152602001828054610d3690612933565b8015610d835780601f10610d5857610100808354040283529160200191610d83565b820191906000526020600020905b815481529060010190602001808311610d6657829003601f168201915b5050505050908060020160009054906101000a900473ffffffffffffffffffffffffffffffffffffffff16905083565b600080610dbf8361172d565b9050600073ffffffffffffffffffffffffffffffffffffffff168173ffffffffffffffffffffffffffffffffffffffff1603610e30576040517f08c379a0000000000000000000000000000000000000000000000000000000008152600401610e2790612f10565b60405180910390fd5b80915050919050565b60008073ffffffffffffffffffffffffffffffffffffffff168273ffffffffffffffffffffffffffffffffffffffff1603610ea9576040517f08c379a0000000000000000000000000000000000000000000000000000000008152600401610ea090612fa2565b60405180910390fd5b600360008373ffffffffffffffffffffffffffffffffffffffff1673ffffffffffffffffffffffffffffffffffffffff168152602001908152602001600020549050919050565b600660009054906101000a900473ffffffffffffffffffffffffffffffffffffffff1681565b606060018054610f2590612933565b80601f0160208091040260200160405190810160405280929190818152602001828054610f5190612933565b8015610f9e5780601f10610f7357610100808354040283529160200191610f9e565b820191906000526020600020905b815481529060010190602001808311610f8157829003601f168201915b5050505050905090565b610fba610fb36112c0565b838361176a565b5050565b610fcf610fc96112c0565b83611381565b61100e576040517f08c379a000000000000000000000000000000000000000000000000000000000815260040161100590612afa565b60405180910390fd5b61101a848484846118d6565b50505050565b606061102b82611275565b6000611035611932565b905060008151116110555760405180602001604052806000815250611080565b8061105f84611949565b604051602001611070929190612ff3565b6040516020818303038152906040525b915050919050565b6000600560008473ffffffffffffffffffffffffffffffffffffffff1673ffffffffffffffffffffffffffffffffffffffff16815260200190815260200160002060008373ffffffffffffffffffffffffffffffffffffffff1673ffffffffffffffffffffffffffffffffffffffff16815260200190815260200160002060009054906101000a900460ff16905092915050565b6009602052816000526040600020818154811061113857600080fd5b90600052602060002090600302016000915091505080600001549080600101805461116290612933565b80601f016020809104026020016040519081016040528092919081815260200182805461118e90612933565b80156111db5780601f106111b0576101008083540402835291602001916111db565b820191906000526020600020905b8154815290600101906020018083116111be57829003601f168201915b5050505050908060020160009054906101000a900473ffffffffffffffffffffffffffffffffffffffff16905083565b60007f01ffc9a7000000000000000000000000000000000000000000000000000000007bffffffffffffffffffffffffffffffffffffffffffffffffffffffff1916827bffffffffffffffffffffffffffffffffffffffffffffffffffffffff1916149050919050565b61127e81611a17565b6112bd576040517f08c379a00000000000000000000000000000000000000000000000000000000081526004016112b490612f10565b60405180910390fd5b50565b600033905090565b816004600083815260200190815260200160002060006101000a81548173ffffffffffffffffffffffffffffffffffffffff021916908373ffffffffffffffffffffffffffffffffffffffff160217905550808273ffffffffffffffffffffffffffffffffffffffff1661133b83610db3565b73ffffffffffffffffffffffffffffffffffffffff167f8c5be1e5ebec7d5bd14f71427d1e84f3dd0314c0f7b2291e5b200ac8c7c3b92560405160405180910390a45050565b60008061138d83610db3565b90508073ffffffffffffffffffffffffffffffffffffffff168473ffffffffffffffffffffffffffffffffffffffff1614806113cf57506113ce8185611088565b5b8061140d57508373ffffffffffffffffffffffffffffffffffffffff166113f58461064b565b73ffffffffffffffffffffffffffffffffffffffff16145b91505092915050565b8273ffffffffffffffffffffffffffffffffffffffff1661143682610db3565b73ffffffffffffffffffffffffffffffffffffffff161461148c576040517f08c379a000000000000000000000000000000000000000000000000000000000815260040161148390613089565b60405180910390fd5b600073ffffffffffffffffffffffffffffffffffffffff168273ffffffffffffffffffffffffffffffffffffffff16036114fb576040517f08c379a00000000000000000000000000000000000000000000000000000000081526004016114f29061311b565b60405180910390fd5b6115088383836001611a58565b8273ffffffffffffffffffffffffffffffffffffffff1661152882610db3565b73ffffffffffffffffffffffffffffffffffffffff161461157e576040517f08c379a000000000000000000000000000000000000000000000000000000000815260040161157590613089565b60405180910390fd5b6004600082815260200190815260200160002060006101000a81549073ffffffffffffffffffffffffffffffffffffffff02191690556001600360008573ffffffffffffffffffffffffffffffffffffffff1673ffffffffffffffffffffffffffffffffffffffff168152602001908152602001600020600082825403925050819055506001600360008473ffffffffffffffffffffffffffffffffffffffff1673ffffffffffffffffffffffffffffffffffffffff16815260200190815260200160002060008282540192505081905550816002600083815260200190815260200160002060006101000a81548173ffffffffffffffffffffffffffffffffffffffff021916908373ffffffffffffffffffffffffffffffffffffffff160217905550808273ffffffffffffffffffffffffffffffffffffffff168473ffffffffffffffffffffffffffffffffffffffff167fddf252ad1be2c89b69c2b068fc378daa952ba7f163c4a11628f55a4df523b3ef60405160405180910390a461170a8383836001611a5e565b505050565b611729828260405180602001604052806000815250611a64565b5050565b60006002600083815260200190815260200160002060009054906101000a900473ffffffffffffffffffffffffffffffffffffffff169050919050565b8173ffffffffffffffffffffffffffffffffffffffff168373ffffffffffffffffffffffffffffffffffffffff16036117d8576040517f08c379a00000000000000000000000000000000000000000000000000000000081526004016117cf90613187565b60405180910390fd5b80600560008573ffffffffffffffffffffffffffffffffffffffff1673ffffffffffffffffffffffffffffffffffffffff16815260200190815260200160002060008473ffffffffffffffffffffffffffffffffffffffff1673ffffffffffffffffffffffffffffffffffffffff16815260200190815260200160002060006101000a81548160ff0219169083151502179055508173ffffffffffffffffffffffffffffffffffffffff168373ffffffffffffffffffffffffffffffffffffffff167f17307eab39ab6107e8899845ad3d59bd9653f200f220920489ca2b5937696c31836040516118c9919061208d565b60405180910390a3505050565b6118e1848484611416565b6118ed84848484611abf565b61192c576040517f08c379a000000000000000000000000000000000000000000000000000000000815260040161192390613219565b60405180910390fd5b50505050565b606060405180602001604052806000815250905090565b60606000600161195884611c46565b01905060008167ffffffffffffffff8111156119775761197661252b565b5b6040519080825280601f01601f1916602001820160405280156119a95781602001600182028036833780820191505090505b509050600082602001820190505b600115611a0c578080600190039150507f3031323334353637383961626364656600000000000000000000000000000000600a86061a8153600a8581611a00576119ff613239565b5b049450600085036119b7575b819350505050919050565b60008073ffffffffffffffffffffffffffffffffffffffff16611a398361172d565b73ffffffffffffffffffffffffffffffffffffffff1614159050919050565b50505050565b50505050565b611a6e8383611d99565b611a7b6000848484611abf565b611aba576040517f08c379a0000000000000000000000000000000000000000000000000000000008152600401611ab190613219565b60405180910390fd5b505050565b6000611ae08473ffffffffffffffffffffffffffffffffffffffff16611fb6565b15611c39578373ffffffffffffffffffffffffffffffffffffffff1663150b7a02611b096112c0565b8786866040518563ffffffff1660e01b8152600401611b2b94939291906132bd565b6020604051808303816000875af1925050508015611b6757506040513d601f19601f82011682018060405250810190611b64919061331e565b60015b611be9573d8060008114611b97576040519150601f19603f3d011682016040523d82523d6000602084013e611b9c565b606091505b506000815103611be1576040517f08c379a0000000000000000000000000000000000000000000000000000000008152600401611bd890613219565b60405180910390fd5b805181602001fd5b63150b7a0260e01b7bffffffffffffffffffffffffffffffffffffffffffffffffffffffff1916817bffffffffffffffffffffffffffffffffffffffffffffffffffffffff191614915050611c3e565b600190505b949350505050565b600080600090507a184f03e93ff9f4daa797ed6e38ed64bf6a1f0100000000000000008310611ca4577a184f03e93ff9f4daa797ed6e38ed64bf6a1f0100000000000000008381611c9a57611c99613239565b5b0492506040810190505b6d04ee2d6d415b85acef81000000008310611ce1576d04ee2d6d415b85acef81000000008381611cd757611cd6613239565b5b0492506020810190505b662386f26fc100008310611d1057662386f26fc100008381611d0657611d05613239565b5b0492506010810190505b6305f5e1008310611d39576305f5e1008381611d2f57611d2e613239565b5b0492506008810190505b6127108310611d5e576127108381611d5457611d53613239565b5b0492506004810190505b60648310611d815760648381611d7757611d76613239565b5b0492506002810190505b600a8310611d90576001810190505b80915050919050565b600073ffffffffffffffffffffffffffffffffffffffff168273ffffffffffffffffffffffffffffffffffffffff1603611e08576040517f08c379a0000000000000000000000000000000000000000000000000000000008152600401611dff90613397565b60405180910390fd5b611e1181611a17565b15611e51576040517f08c379a0000000000000000000000000000000000000000000000000000000008152600401611e4890613403565b60405180910390fd5b611e5f600083836001611a58565b611e6881611a17565b15611ea8576040517f08c379a0000000000000000000000000000000000000000000000000000000008152600401611e9f90613403565b60405180910390fd5b6001600360008473ffffffffffffffffffffffffffffffffffffffff1673ffffffffffffffffffffffffffffffffffffffff16815260200190815260200160002060008282540192505081905550816002600083815260200190815260200160002060006101000a81548173ffffffffffffffffffffffffffffffffffffffff021916908373ffffffffffffffffffffffffffffffffffffffff160217905550808273ffffffffffffffffffffffffffffffffffffffff16600073ffffffffffffffffffffffffffffffffffffffff167fddf252ad1be2c89b69c2b068fc378daa952ba7f163c4a11628f55a4df523b3ef60405160405180910390a4611fb2600083836001611a5e565b5050565b6000808273ffffffffffffffffffffffffffffffffffffffff163b119050919050565b6000604051905090565b600080fd5b600080fd5b60007fffffffff0000000000000000000000000000000000000000000000000000000082169050919050565b61202281611fed565b811461202d57600080fd5b50565b60008135905061203f81612019565b92915050565b60006020828403121561205b5761205a611fe3565b5b600061206984828501612030565b91505092915050565b60008115159050919050565b61208781612072565b82525050565b60006020820190506120a2600083018461207e565b92915050565b600081519050919050565b600082825260208201905092915050565b60005b838110156120e25780820151818401526020810190506120c7565b60008484015250505050565b6000601f19601f8301169050919050565b600061210a826120a8565b61211481856120b3565b93506121248185602086016120c4565b61212d816120ee565b840191505092915050565b6000602082019050818103600083015261215281846120ff565b905092915050565b6000819050919050565b61216d8161215a565b811461217857600080fd5b50565b60008135905061218a81612164565b92915050565b6000602082840312156121a6576121a5611fe3565b5b60006121b48482850161217b565b91505092915050565b600073ffffffffffffffffffffffffffffffffffffffff82169050919050565b60006121e8826121bd565b9050919050565b6121f8816121dd565b82525050565b600060208201905061221360008301846121ef565b92915050565b612222816121dd565b811461222d57600080fd5b50565b60008135905061223f81612219565b92915050565b6000806040838503121561225c5761225b611fe3565b5b600061226a85828601612230565b925050602061227b8582860161217b565b9150509250929050565b60008060006060848603121561229e5761229d611fe3565b5b60006122ac86828701612230565b93505060206122bd86828701612230565b92505060406122ce8682870161217b565b9150509250925092565b600081519050919050565b600082825260208201905092915050565b6000819050602082019050919050565b61230d8161215a565b82525050565b600082825260208201905092915050565b600061232f826120a8565b6123398185612313565b93506123498185602086016120c4565b612352816120ee565b840191505092915050565b612366816121dd565b82525050565b60006060830160008301516123846000860182612304565b506020830151848203602086015261239c8282612324565b91505060408301516123b1604086018261235d565b508091505092915050565b60006123c8838361236c565b905092915050565b6000602082019050919050565b60006123e8826122d8565b6123f281856122e3565b935083602082028501612404856122f4565b8060005b85811015612440578484038952815161242185826123bc565b945061242c836123d0565b925060208a01995050600181019050612408565b50829750879550505050505092915050565b6000602082019050818103600083015261246c81846123dd565b905092915050565b600080fd5b600080fd5b600080fd5b60008083601f84011261249957612498612474565b5b8235905067ffffffffffffffff8111156124b6576124b5612479565b5b6020830191508360018202830111156124d2576124d161247e565b5b9250929050565b600080602083850312156124f0576124ef611fe3565b5b600083013567ffffffffffffffff81111561250e5761250d611fe8565b5b61251a85828601612483565b92509250509250929050565b600080fd5b7f4e487b7100000000000000000000000000000000000000000000000000000000600052604160045260246000fd5b612563826120ee565b810181811067ffffffffffffffff821117156125825761258161252b565b5b80604052505050565b6000612595611fd9565b90506125a1828261255a565b919050565b600067ffffffffffffffff8211156125c1576125c061252b565b5b6125ca826120ee565b9050602081019050919050565b82818337600083830152505050565b60006125f96125f4846125a6565b61258b565b90508281526020810184848401111561261557612614612526565b5b6126208482856125d7565b509392505050565b600082601f83011261263d5761263c612474565b5b813561264d8482602086016125e6565b91505092915050565b60006020828403121561266c5761266b611fe3565b5b600082013567ffffffffffffffff81111561268a57612689611fe8565b5b61269684828501612628565b91505092915050565b6126a88161215a565b82525050565b60006060820190506126c3600083018661269f565b81810360208301526126d581856120ff565b90506126e460408301846121ef565b949350505050565b60006020828403121561270257612701611fe3565b5b600061271084828501612230565b91505092915050565b600060208201905061272e600083018461269f565b92915050565b61273d81612072565b811461274857600080fd5b50565b60008135905061275a81612734565b92915050565b6000806040838503121561277757612776611fe3565b5b600061278585828601612230565b92505060206127968582860161274b565b9150509250929050565b600067ffffffffffffffff8211156127bb576127ba61252b565b5b6127c4826120ee565b9050602081019050919050565b60006127e46127df846127a0565b61258b565b905082815260208101848484011115612800576127ff612526565b5b61280b8482856125d7565b509392505050565b600082601f83011261282857612827612474565b5b81356128388482602086016127d1565b91505092915050565b6000806000806080858703121561285b5761285a611fe3565b5b600061286987828801612230565b945050602061287a87828801612230565b935050604061288b8782880161217b565b925050606085013567ffffffffffffffff8111156128ac576128ab611fe8565b5b6128b887828801612813565b91505092959194509250565b600080604083850312156128db576128da611fe3565b5b60006128e985828601612230565b92505060206128fa85828601612230565b9150509250929050565b7f4e487b7100000000000000000000000000000000000000000000000000000000600052602260045260246000fd5b6000600282049050600182168061294b57607f821691505b60208210810361295e5761295d612904565b5b50919050565b7f4552433732313a20617070726f76616c20746f2063757272656e74206f776e6560008201527f7200000000000000000000000000000000000000000000000000000000000000602082015250565b60006129c06021836120b3565b91506129cb82612964565b604082019050919050565b600060208201905081810360008301526129ef816129b3565b9050919050565b7f4552433732313a20617070726f76652063616c6c6572206973206e6f7420746f60008201527f6b656e206f776e6572206f7220617070726f76656420666f7220616c6c000000602082015250565b6000612a52603d836120b3565b9150612a5d826129f6565b604082019050919050565b60006020820190508181036000830152612a8181612a45565b9050919050565b7f4552433732313a2063616c6c6572206973206e6f7420746f6b656e206f776e6560008201527f72206f7220617070726f76656400000000000000000000000000000000000000602082015250565b6000612ae4602d836120b3565b9150612aef82612a88565b604082019050919050565b60006020820190508181036000830152612b1381612ad7565b9050919050565b600081905092915050565b6000612b318385612b1a565b9350612b3e8385846125d7565b82840190509392505050565b6000612b57828486612b25565b91508190509392505050565b7f546f6b656e20616c726561647920657869737473000000000000000000000000600082015250565b6000612b996014836120b3565b9150612ba482612b63565b602082019050919050565b60006020820190508181036000830152612bc881612b8c565b9050919050565b60008190508160005260206000209050919050565b60006020601f8301049050919050565b600082821b905092915050565b600060088302612c317fffffffffffffffffffffffffffffffffffffffffffffffffffffffffffffffff82612bf4565b612c3b8683612bf4565b95508019841693508086168417925050509392505050565b6000819050919050565b6000612c78612c73612c6e8461215a565b612c53565b61215a565b9050919050565b6000819050919050565b612c9283612c5d565b612ca6612c9e82612c7f565b848454612c01565b825550505050565b600090565b612cbb612cae565b612cc6818484612c89565b505050565b5b81811015612cea57612cdf600082612cb3565b600181019050612ccc565b5050565b601f821115612d2f57612d0081612bcf565b612d0984612be4565b81016020851015612d18578190505b612d2c612d2485612be4565b830182612ccb565b50505b505050565b600082821c905092915050565b6000612d5260001984600802612d34565b1980831691505092915050565b6000612d6b8383612d41565b9150826002028217905092915050565b612d84826120a8565b67ffffffffffffffff811115612d9d57612d9c61252b565b5b612da78254612933565b612db2828285612cee565b600060209050601f831160018114612de55760008415612dd3578287015190505b612ddd8582612d5f565b865550612e45565b601f198416612df386612bcf565b60005b82811015612e1b57848901518255600182019150602085019450602081019050612df6565b86831015612e385784890151612e34601f891682612d41565b8355505b6001600288020188555050505b505050505050565b7f4e487b7100000000000000000000000000000000000000000000000000000000600052601160045260246000fd5b6000612e878261215a565b91507fffffffffffffffffffffffffffffffffffffffffffffffffffffffffffffffff8203612eb957612eb8612e4d565b5b600182019050919050565b7f4552433732313a20696e76616c696420746f6b656e2049440000000000000000600082015250565b6000612efa6018836120b3565b9150612f0582612ec4565b602082019050919050565b60006020820190508181036000830152612f2981612eed565b9050919050565b7f4552433732313a2061646472657373207a65726f206973206e6f74206120766160008201527f6c6964206f776e65720000000000000000000000000000000000000000000000602082015250565b6000612f8c6029836120b3565b9150612f9782612f30565b604082019050919050565b60006020820190508181036000830152612fbb81612f7f565b9050919050565b6000612fcd826120a8565b612fd78185612b1a565b9350612fe78185602086016120c4565b80840191505092915050565b6000612fff8285612fc2565b915061300b8284612fc2565b91508190509392505050565b7f4552433732313a207472616e736665722066726f6d20696e636f72726563742060008201527f6f776e6572000000000000000000000000000000000000000000000000000000602082015250565b60006130736025836120b3565b915061307e82613017565b604082019050919050565b600060208201905081810360008301526130a281613066565b9050919050565b7f4552433732313a207472616e7366657220746f20746865207a65726f2061646460008201527f7265737300000000000000000000000000000000000000000000000000000000602082015250565b60006131056024836120b3565b9150613110826130a9565b604082019050919050565b60006020820190508181036000830152613134816130f8565b9050919050565b7f4552433732313a20617070726f766520746f2063616c6c657200000000000000600082015250565b60006131716019836120b3565b915061317c8261313b565b602082019050919050565b600060208201905081810360008301526131a081613164565b9050919050565b7f4552433732313a207472616e7366657220746f206e6f6e20455243373231526560008201527f63656976657220696d706c656d656e7465720000000000000000000000000000602082015250565b60006132036032836120b3565b915061320e826131a7565b604082019050919050565b60006020820190508181036000830152613232816131f6565b9050919050565b7f4e487b7100000000000000000000000000000000000000000000000000000000600052601260045260246000fd5b600081519050919050565b600082825260208201905092915050565b600061328f82613268565b6132998185613273565b93506132a98185602086016120c4565b6132b2816120ee565b840191505092915050565b60006080820190506132d260008301876121ef565b6132df60208301866121ef565b6132ec604083018561269f565b81810360608301526132fe8184613284565b905095945050505050565b60008151905061331881612019565b92915050565b60006020828403121561333457613333611fe3565b5b600061334284828501613309565b91505092915050565b7f4552433732313a206d696e7420746f20746865207a65726f2061646472657373600082015250565b60006133816020836120b3565b915061338c8261334b565b602082019050919050565b600060208201905081810360008301526133b081613374565b9050919050565b7f4552433732313a20746f6b656e20616c7265616479206d696e74656400000000600082015250565b60006133ed601c836120b3565b91506133f8826133b7565b602082019050919050565b6000602082019050818103600083015261341c816133e0565b905091905056fea26469706673582212206810eb9a7a31e4ef185f6d7dad9c61467e990a4f8955c60959a5c4ce0f4035a564736f6c63430008130033",
  "immutableReferences": {},
  "source": "// SPDX-License-Identifier: MITIT\r\n\r\npragma solidity ^0.8.11;\r\n\r\nimport \"../node_modules/@openzeppelin/contracts/token/ERC721/ERC721.sol\";\r\n\r\ncontract ColorToken is ERC721{\r\n    address public owner;\r\n    uint256 tokenId = 1;\r\n\r\n    struct Color{\r\n        uint tokenId;\r\n        string tokenName;\r\n        address owner;\r\n    }\r\n\r\n    Color[] public allTokens;\r\n\r\n    mapping (address => Color[]) public tokenAdress; \r\n    mapping(string => bool) public tokenExists;\r\n\r\n    constructor() ERC721(\"ColorToken\",\"CLR\"){\r\n        owner = msg.sender;\r\n        \r\n    }\r\n\r\n    function  getAllTokens() public view returns (Color[] memory) {\r\n        return allTokens;\r\n    }\r\n\r\n    function mintToken(string calldata _tokenName) public payable {\r\n        require(!tokenExists[_tokenName],\"Token already exists\" );\r\n        _safeMint(msg.sender, tokenId);\r\n        allTokens.push(Color(tokenId,_tokenName,msg.sender));\r\n        tokenAdress[msg.sender].push(Color(tokenId,_tokenName,msg.sender));\r\n\r\n        tokenExists[_tokenName] = true;\r\n        tokenId++;\r\n\r\n    }\r\n\r\n}\r\n",
  "sourcePath": "D:\\Work\\Projects\\blockchain\\Ethereum\\obolnft\\obol-nft\\contracts\\ColorToken.sol",
  "compiler": {
    "name": "solc",
    "version": "0.8.19+commit.7dd6d404.Emscripten.clang"
  },
  "schemaVersion": "3.4.13",
  "updatedAt": "2023-04-09T11:00:52.352Z",
  "networkType": "ethereum",
  "devdoc": {
    "events": {
      "Approval(address,address,uint256)": {
        "details": "Emitted when `owner` enables `approved` to manage the `tokenId` token."
      },
      "ApprovalForAll(address,address,bool)": {
        "details": "Emitted when `owner` enables or disables (`approved`) `operator` to manage all of its assets."
      },
      "Transfer(address,address,uint256)": {
        "details": "Emitted when `tokenId` token is transferred from `from` to `to`."
      }
    },
    "kind": "dev",
    "methods": {
      "approve(address,uint256)": {
        "details": "See {IERC721-approve}."
      },
      "balanceOf(address)": {
        "details": "See {IERC721-balanceOf}."
      },
      "getApproved(uint256)": {
        "details": "See {IERC721-getApproved}."
      },
      "isApprovedForAll(address,address)": {
        "details": "See {IERC721-isApprovedForAll}."
      },
      "name()": {
        "details": "See {IERC721Metadata-name}."
      },
      "ownerOf(uint256)": {
        "details": "See {IERC721-ownerOf}."
      },
      "safeTransferFrom(address,address,uint256)": {
        "details": "See {IERC721-safeTransferFrom}."
      },
      "safeTransferFrom(address,address,uint256,bytes)": {
        "details": "See {IERC721-safeTransferFrom}."
      },
      "setApprovalForAll(address,bool)": {
        "details": "See {IERC721-setApprovalForAll}."
      },
      "supportsInterface(bytes4)": {
        "details": "See {IERC165-supportsInterface}."
      },
      "symbol()": {
        "details": "See {IERC721Metadata-symbol}."
      },
      "tokenURI(uint256)": {
        "details": "See {IERC721Metadata-tokenURI}."
      },
      "transferFrom(address,address,uint256)": {
        "details": "See {IERC721-transferFrom}."
      }
    },
    "version": 1
  },
  "userdoc": {
    "kind": "user",
    "methods": {},
    "version": 1
  }
}